{
  "contractName": "ChainList",
  "abi": [
    {
      "constant": false,
      "inputs": [
        {
          "name": "anId",
          "type": "uint256"
        }
      ],
      "name": "buyArticle",
      "outputs": [],
      "payable": true,
      "stateMutability": "payable",
      "type": "function"
    },
    {
      "constant": false,
      "inputs": [],
      "name": "kill",
      "outputs": [],
      "payable": false,
      "stateMutability": "nonpayable",
      "type": "function"
    },
    {
      "constant": true,
      "inputs": [],
      "name": "getArticlesForSale",
      "outputs": [
        {
          "name": "",
          "type": "uint256[]"
        }
      ],
      "payable": false,
      "stateMutability": "view",
      "type": "function"
    },
    {
      "constant": true,
      "inputs": [],
      "name": "getNumberOfArticles",
      "outputs": [
        {
          "name": "",
          "type": "uint256"
        }
      ],
      "payable": false,
      "stateMutability": "view",
      "type": "function"
    },
    {
      "constant": false,
      "inputs": [
        {
          "name": "aName",
          "type": "string"
        },
        {
          "name": "aDescription",
          "type": "string"
        },
        {
          "name": "aPrice",
          "type": "uint256"
        }
      ],
      "name": "sellArticle",
      "outputs": [],
      "payable": false,
      "stateMutability": "nonpayable",
      "type": "function"
    },
    {
      "constant": true,
      "inputs": [
        {
          "name": "",
          "type": "uint256"
        }
      ],
      "name": "articles",
      "outputs": [
        {
          "name": "id",
          "type": "uint256"
        },
        {
          "name": "seller",
          "type": "address"
        },
        {
          "name": "buyer",
          "type": "address"
        },
        {
          "name": "name",
          "type": "string"
        },
        {
          "name": "description",
          "type": "string"
        },
        {
          "name": "price",
          "type": "uint256"
        }
      ],
      "payable": false,
      "stateMutability": "view",
      "type": "function"
    },
    {
      "anonymous": false,
      "inputs": [
        {
          "indexed": true,
          "name": "id",
          "type": "uint256"
        },
        {
          "indexed": true,
          "name": "aSeller",
          "type": "address"
        },
        {
          "indexed": false,
          "name": "aName",
          "type": "string"
        },
        {
          "indexed": false,
          "name": "aPrice",
          "type": "uint256"
        }
      ],
      "name": "sellArticleEvent",
      "type": "event"
    },
    {
      "anonymous": false,
      "inputs": [
        {
          "indexed": true,
          "name": "id",
          "type": "uint256"
        },
        {
          "indexed": true,
          "name": "aSeller",
          "type": "address"
        },
        {
          "indexed": true,
          "name": "aBuyer",
          "type": "address"
        },
        {
          "indexed": false,
          "name": "aName",
          "type": "string"
        },
        {
          "indexed": false,
          "name": "aPrice",
          "type": "uint256"
        }
      ],
      "name": "buyArticleEvent",
      "type": "event"
    }
  ],
  "bytecode": "0x6060604052336000806101000a81548173ffffffffffffffffffffffffffffffffffffffff021916908373ffffffffffffffffffffffffffffffffffffffff160217905550610c46806100536000396000f300606060405260043610610078576000357c0100000000000000000000000000000000000000000000000000000000900463ffffffff1680631cc4baa81461007d57806341c0e1b5146100955780637f6be3da146100aa57806389da85d314610114578063d26095151461013d578063edcfafe6146101e6575b600080fd5b610093600480803590602001909190505061039c565b005b34156100a057600080fd5b6100a8610684565b005b34156100b557600080fd5b6100bd610719565b6040518080602001828103825283818151815260200191508051906020019060200280838360005b838110156101005780820151818401526020810190506100e5565b505050509050019250505060405180910390f35b341561011f57600080fd5b6101276108b7565b6040518082815260200191505060405180910390f35b341561014857600080fd5b6101e4600480803590602001908201803590602001908080601f0160208091040260200160405190810160405280939291908181526020018383808284378201915050505050509190803590602001908201803590602001908080601f016020809104026020016040519081016040528093929190818152602001838380828437820191505050505050919080359060200190919050506108c1565b005b34156101f157600080fd5b6102076004808035906020019091905050610ae7565b604051808781526020018673ffffffffffffffffffffffffffffffffffffffff1673ffffffffffffffffffffffffffffffffffffffff1681526020018573ffffffffffffffffffffffffffffffffffffffff1673ffffffffffffffffffffffffffffffffffffffff16815260200180602001806020018481526020018381038352868181546001816001161561010002031660029004815260200191508054600181600116156101000203166002900480156103045780601f106102d957610100808354040283529160200191610304565b820191906000526020600020905b8154815290600101906020018083116102e757829003601f168201915b50508381038252858181546001816001161561010002031660029004815260200191508054600181600116156101000203166002900480156103875780601f1061035c57610100808354040283529160200191610387565b820191906000526020600020905b81548152906001019060200180831161036a57829003601f168201915b50509850505050505050505060405180910390f35b6000806002541115156103ae57600080fd5b6000821180156103c057506002548211155b15156103cb57600080fd5b60016000838152602001908152602001600020905060008160020160009054906101000a900473ffffffffffffffffffffffffffffffffffffffff1673ffffffffffffffffffffffffffffffffffffffff1614151561042957600080fd5b3373ffffffffffffffffffffffffffffffffffffffff168160010160009054906101000a900473ffffffffffffffffffffffffffffffffffffffff1673ffffffffffffffffffffffffffffffffffffffff161415151561048857600080fd5b34816005015414151561049a57600080fd5b338160020160006101000a81548173ffffffffffffffffffffffffffffffffffffffff021916908373ffffffffffffffffffffffffffffffffffffffff1602179055508060010160009054906101000a900473ffffffffffffffffffffffffffffffffffffffff1673ffffffffffffffffffffffffffffffffffffffff166108fc349081150290604051600060405180830381858888f19350505050151561054157600080fd5b8060020160009054906101000a900473ffffffffffffffffffffffffffffffffffffffff1673ffffffffffffffffffffffffffffffffffffffff168160010160009054906101000a900473ffffffffffffffffffffffffffffffffffffffff1673ffffffffffffffffffffffffffffffffffffffff16837f1022115f3a730bbc8daef9a08e80544240a1578ecba51270e55ab8e72d626e7284600301856005015460405180806020018381526020018281038252848181546001816001161561010002031660029004815260200191508054600181600116156101000203166002900480156106715780601f1061064657610100808354040283529160200191610671565b820191906000526020600020905b81548152906001019060200180831161065457829003601f168201915b5050935050505060405180910390a45050565b6000809054906101000a900473ffffffffffffffffffffffffffffffffffffffff1673ffffffffffffffffffffffffffffffffffffffff163373ffffffffffffffffffffffffffffffffffffffff161415156106df57600080fd5b6000809054906101000a900473ffffffffffffffffffffffffffffffffffffffff1673ffffffffffffffffffffffffffffffffffffffff16ff5b610721610b61565b610729610b61565b600080610734610b61565b600080600254141561076757600060405180591061074f5750595b908082528060200260200182016040525095506108af565b6002546040518059106107775750595b9080825280602002602001820160405250945060009350600192505b6002548311151561083c5760006001600085815260200190815260200160002060020160009054906101000a900473ffffffffffffffffffffffffffffffffffffffff1673ffffffffffffffffffffffffffffffffffffffff16141561082f576001600084815260200190815260200160002060000154858581518110151561081857fe5b906020019060200201818152505083806001019450505b8280600101935050610793565b8360405180591061084a5750595b90808252806020026020018201604052509150600090505b838110156108ab57848181518110151561087857fe5b90602001906020020151828281518110151561089057fe5b90602001906020020181815250508080600101915050610862565b8195505b505050505090565b6000600254905090565b60026000815480929190600101919050555060c06040519081016040528060025481526020013373ffffffffffffffffffffffffffffffffffffffff168152602001600073ffffffffffffffffffffffffffffffffffffffff168152602001848152602001838152602001828152506001600060025481526020019081526020016000206000820151816000015560208201518160010160006101000a81548173ffffffffffffffffffffffffffffffffffffffff021916908373ffffffffffffffffffffffffffffffffffffffff16021790555060408201518160020160006101000a81548173ffffffffffffffffffffffffffffffffffffffff021916908373ffffffffffffffffffffffffffffffffffffffff16021790555060608201518160030190805190602001906109f9929190610b75565b506080820151816004019080519060200190610a16929190610b75565b5060a082015181600501559050503373ffffffffffffffffffffffffffffffffffffffff166002547fe6dcabaf37bca305551877dc9bc2cb6019fbb7859c0f74c037077d948fb17c5685846040518080602001838152602001828103825284818151815260200191508051906020019080838360005b83811015610aa7578082015181840152602081019050610a8c565b50505050905090810190601f168015610ad45780820380516001836020036101000a031916815260200191505b50935050505060405180910390a3505050565b60016020528060005260406000206000915090508060000154908060010160009054906101000a900473ffffffffffffffffffffffffffffffffffffffff16908060020160009054906101000a900473ffffffffffffffffffffffffffffffffffffffff1690806003019080600401908060050154905086565b602060405190810160405280600081525090565b828054600181600116156101000203166002900490600052602060002090601f016020900481019282601f10610bb657805160ff1916838001178555610be4565b82800160010185558215610be4579182015b82811115610be3578251825591602001919060010190610bc8565b5b509050610bf19190610bf5565b5090565b610c1791905b80821115610c13576000816000905550600101610bfb565b5090565b905600a165627a7a72305820b4cb95f011b57498112dfc0e227225bc3b0019139b2348e4018f50c068a934e20029",
  "source": "pragma solidity ^0.4.11;\r\n\r\nimport \"./Owned.sol\";\r\n\r\ncontract ChainList is Owned{\r\n    // Custom types\r\n    struct Article{\r\n        uint id;\r\n        address seller;\r\n        address buyer;\r\n        string name;\r\n        string description;\r\n        uint256 price;\r\n    }\r\n\r\n  //State variables\r\n  mapping (uint => Article) public articles;\r\n  uint articleCounter;\r\n\r\n\r\n  // events\r\n    event sellArticleEvent(\r\n        uint indexed id,\r\n          address indexed aSeller,\r\n          string aName,\r\n          uint256 aPrice\r\n    );\r\n    event buyArticleEvent(\r\n        uint indexed id,\r\n        address indexed aSeller,\r\n        address indexed aBuyer,\r\n        string aName,\r\n        uint256 aPrice\r\n    );\r\n\r\n      //sell an article\r\n      function sellArticle(string aName, string aDescription, uint256 aPrice)\r\n      public {\r\n          // a new article\r\n          articleCounter++;\r\n\r\n          // store this article\r\n          articles[articleCounter] = Article({\r\n              id:articleCounter,\r\n              seller: msg.sender,\r\n              buyer: 0x0,\r\n              name: aName,\r\n              description: aDescription,\r\n              price: aPrice\r\n              });\r\n\r\n\r\n          sellArticleEvent(articleCounter, msg.sender, aName, aPrice);\r\n      }\r\n\r\n      function getNumberOfArticles() public constant returns (uint) {\r\n          return articleCounter;\r\n      }\r\n\r\n      // fetch and returns all article IDs available for sale\r\n      function getArticlesForSale() public constant returns (uint[]) {\r\n          // we check whether there is at least one article\r\n          if(articleCounter == 0){\r\n            return new uint[](0);\r\n          }\r\n\r\n          // prepare output arrays\r\n          uint[] memory articleIds = new uint[](articleCounter);\r\n\r\n          uint numberOfArticlesForSale = 0;\r\n          // iterate over articles\r\n          for (uint i = 1; i <= articleCounter; i++) {\r\n              // keep only the ID fot the article not already sold\r\n              if (articles[i].buyer == 0x0){\r\n                  articleIds[numberOfArticlesForSale] = articles[i].id;\r\n                  numberOfArticlesForSale++;\r\n              }\r\n          }\r\n\r\n          // copy the articleIds array into the smaller forSale array\r\n          uint[] memory forSale = new uint[](numberOfArticlesForSale);\r\n          for (uint j = 0; j < numberOfArticlesForSale; j++){\r\n              forSale[j] = articleIds[j];\r\n          }\r\n          return (forSale);\r\n      }\r\n\r\n      // buy an article\r\n      function buyArticle(uint anId) payable public {\r\n          // we check wether there is at least one article\r\n          require(articleCounter > 0);\r\n\r\n          // we check whethere the article exists\r\n          require(anId > 0 && anId <= articleCounter);\r\n\r\n          // we retreive the article from the list\r\n          Article storage article = articles[anId];\r\n\r\n          // we check if the article has not already been sold\r\n          require(article.buyer == 0x0);\r\n\r\n          // we dont allow the seller to buy it's own article\r\n          require(article.seller != msg.sender);\r\n\r\n          // we check whether the value sent corresponds to the article price\r\n          require(article.price == msg.value);\r\n\r\n          // keep buyer's information\r\n          article.buyer = msg.sender;\r\n\r\n          // the buyer can buy the article\r\n          article.seller.transfer(msg.value);\r\n\r\n          // trigger the event\r\n          buyArticleEvent(anId, article.seller, article.buyer, article.name, article.price);\r\n      }\r\n\r\n      // kill the smart contract\r\n      function kill() onlyOwner public {\r\n          selfdestruct(owner);\r\n      }\r\n}\r\n",
  "sourcePath": "D:\\Blockchain\\chainSkills\\trainings\\chainlistrepo\\contracts\\ChainList.sol",
  "compiler": {
    "name": "solc",
    "version": "0.4.18+commit.9cf6e910.Emscripten.clang"
  },
  "schemaVersion": "1.0.1",
  "updatedAt": "2018-09-30T17:09:57.447Z"
}